{
  "_format": "hh-sol-artifact-1",
  "contractName": "EtherCoinFlip",
  "sourceName": "contracts/EtherCoinFlip.sol",
  "abi": [
    {
      "inputs": [],
      "stateMutability": "nonpayable",
      "type": "constructor"
    },
    {
      "anonymous": false,
      "inputs": [
        {
          "indexed": true,
          "internalType": "address",
          "name": "winner",
          "type": "address"
        }
      ],
      "name": "EtherCoinFinishedFlip",
      "type": "event"
    },
    {
      "anonymous": false,
      "inputs": [
        {
          "indexed": true,
          "internalType": "uint256",
          "name": "theCoinFlipID",
          "type": "uint256"
        }
      ],
      "name": "EtherCoinFlipped",
      "type": "event"
    },
    {
      "inputs": [
        {
          "internalType": "uint256",
          "name": "coinFlipID",
          "type": "uint256"
        }
      ],
      "name": "endCoinFlip",
      "outputs": [],
      "stateMutability": "payable",
      "type": "function"
    },
    {
      "inputs": [],
      "name": "getRandomNumber",
      "outputs": [
        {
          "internalType": "bytes32",
          "name": "requestId",
          "type": "bytes32"
        }
      ],
      "stateMutability": "nonpayable",
      "type": "function"
    },
    {
      "inputs": [],
      "name": "newCoinFlip",
      "outputs": [
        {
          "internalType": "uint256",
          "name": "coinFlipID",
          "type": "uint256"
        }
      ],
      "stateMutability": "payable",
      "type": "function"
    },
    {
      "inputs": [],
      "name": "randomResult",
      "outputs": [
        {
          "internalType": "uint256",
          "name": "",
          "type": "uint256"
        }
      ],
      "stateMutability": "view",
      "type": "function"
    },
    {
      "inputs": [
        {
          "internalType": "bytes32",
          "name": "requestId",
          "type": "bytes32"
        },
        {
          "internalType": "uint256",
          "name": "randomness",
          "type": "uint256"
        }
      ],
      "name": "rawFulfillRandomness",
      "outputs": [],
      "stateMutability": "nonpayable",
      "type": "function"
    }
  ],
  "bytecode": "0x60c060405261012c60045534801561001657600080fd5b5073b3dccb4cf7a26f6cf6b120cf5a73875b7bbc655b7301be23585060835e02b77ef475b0cc51aa1e07098173ffffffffffffffffffffffffffffffffffffffff1660a08173ffffffffffffffffffffffffffffffffffffffff1660601b815250508073ffffffffffffffffffffffffffffffffffffffff1660808173ffffffffffffffffffffffffffffffffffffffff1660601b8152505050507f2ed0feb3e7fd2022120aa84fab1945545a9f2ffc9076fd6156fa96eaff4c131160001b60018190555067016345785d8a000060028190555060805160601c60a05160601c61107c6101236000396000818161035301526108a8015260008181610762015261086c015261107c6000f3fe60806040526004361061004a5760003560e01c806336543f241461004f57806342619f661461006d57806394985ddd14610098578063aa341ee3146100c1578063dbdff2c1146100dd575b600080fd5b610057610108565b6040516100649190610d69565b60405180910390f35b34801561007957600080fd5b5061008261034b565b60405161008f9190610d69565b60405180910390f35b3480156100a457600080fd5b506100bf60048036038101906100ba9190610ab3565b610351565b005b6100db60048036038101906100d69190610aef565b6103ed565b005b3480156100e957600080fd5b506100f261075b565b6040516100ff9190610ca0565b60405180910390f35b60008033905060008190506004600081548092919061012690610e8c565b9190505592506040518061010001604052808481526020018273ffffffffffffffffffffffffffffffffffffffff1681526020013481526020018273ffffffffffffffffffffffffffffffffffffffff168152602001348152602001600081526020018273ffffffffffffffffffffffffffffffffffffffff1681526020018273ffffffffffffffffffffffffffffffffffffffff16815250600560008581526020019081526020016000206000820151816000015560208201518160010160006101000a81548173ffffffffffffffffffffffffffffffffffffffff021916908373ffffffffffffffffffffffffffffffffffffffff1602179055506040820151816002015560608201518160030160006101000a81548173ffffffffffffffffffffffffffffffffffffffff021916908373ffffffffffffffffffffffffffffffffffffffff1602179055506080820151816004015560a0820151816005015560c08201518160060160006101000a81548173ffffffffffffffffffffffffffffffffffffffff021916908373ffffffffffffffffffffffffffffffffffffffff16021790555060e08201518160070160006101000a81548173ffffffffffffffffffffffffffffffffffffffff021916908373ffffffffffffffffffffffffffffffffffffffff160217905550905050827f5c155eb0dda2514ed16f46affaf3d6cc4a46926388738dd8a14e4af2720378b860405160405180910390a2505090565b60035481565b7f000000000000000000000000000000000000000000000000000000000000000073ffffffffffffffffffffffffffffffffffffffff163373ffffffffffffffffffffffffffffffffffffffff16146103df576040517f08c379a00000000000000000000000000000000000000000000000000000000081526004016103d690610d49565b60405180910390fd5b6103e9828261085d565b5050565b60006005600083815260200190815260200160002060405180610100016040529081600082015481526020016001820160009054906101000a900473ffffffffffffffffffffffffffffffffffffffff1673ffffffffffffffffffffffffffffffffffffffff1673ffffffffffffffffffffffffffffffffffffffff168152602001600282015481526020016003820160009054906101000a900473ffffffffffffffffffffffffffffffffffffffff1673ffffffffffffffffffffffffffffffffffffffff1673ffffffffffffffffffffffffffffffffffffffff16815260200160048201548152602001600582015481526020016006820160009054906101000a900473ffffffffffffffffffffffffffffffffffffffff1673ffffffffffffffffffffffffffffffffffffffff1673ffffffffffffffffffffffffffffffffffffffff1681526020016007820160009054906101000a900473ffffffffffffffffffffffffffffffffffffffff1673ffffffffffffffffffffffffffffffffffffffff1673ffffffffffffffffffffffffffffffffffffffff1681525050905060003390506000819050826000015184146105aa57600080fd5b826040015134146105ba57600080fd5b80836060019073ffffffffffffffffffffffffffffffffffffffff16908173ffffffffffffffffffffffffffffffffffffffff168152505034836080018181525050826080015183604001516106109190610db1565b8360a001818152505061062a61062461075b565b8561085d565b6000600260035461063b9190610ee9565b14156106825782602001518360c0019073ffffffffffffffffffffffffffffffffffffffff16908173ffffffffffffffffffffffffffffffffffffffff16815250506106bf565b82606001518360c0019073ffffffffffffffffffffffffffffffffffffffff16908173ffffffffffffffffffffffffffffffffffffffff16815250505b8260c0015173ffffffffffffffffffffffffffffffffffffffff166108fc8460a001519081150290604051600060405180830381858888f1935050505015801561070d573d6000803e3d6000fd5b508260c0015173ffffffffffffffffffffffffffffffffffffffff167f4dc580060e6c512e35a26f314530868524da58d2a565b2601e1baf039e0e6d8160405160405180910390a250505050565b60006002547f000000000000000000000000000000000000000000000000000000000000000073ffffffffffffffffffffffffffffffffffffffff166370a08231306040518263ffffffff1660e01b81526004016107b99190610c47565b60206040518083038186803b1580156107d157600080fd5b505afa1580156107e5573d6000803e3d6000fd5b505050506040513d601f19601f820116820180604052508101906108099190610b18565b101561084a576040517f08c379a000000000000000000000000000000000000000000000000000000000815260040161084190610d29565b60405180910390fd5b610858600154600254610868565b905090565b806003819055505050565b60007f000000000000000000000000000000000000000000000000000000000000000073ffffffffffffffffffffffffffffffffffffffff16634000aea07f0000000000000000000000000000000000000000000000000000000000000000848660006040516020016108dc929190610cbb565b6040516020818303038152906040526040518463ffffffff1660e01b815260040161090993929190610c62565b602060405180830381600087803b15801561092357600080fd5b505af1158015610937573d6000803e3d6000fd5b505050506040513d601f19601f8201168201806040525081019061095b9190610a8a565b50600061097d84600030600080898152602001908152602001600020546109c7565b905060016000808681526020019081526020016000205461099e9190610db1565b600080868152602001908152602001600020819055506109be8482610a03565b91505092915050565b6000848484846040516020016109e09493929190610ce4565b6040516020818303038152906040528051906020012060001c9050949350505050565b60008282604051602001610a18929190610c1b565b60405160208183030381529060405280519060200120905092915050565b600081519050610a4581611001565b92915050565b600081359050610a5a81611018565b92915050565b600081359050610a6f8161102f565b92915050565b600081519050610a848161102f565b92915050565b600060208284031215610a9c57600080fd5b6000610aaa84828501610a36565b91505092915050565b60008060408385031215610ac657600080fd5b6000610ad485828601610a4b565b9250506020610ae585828601610a60565b9150509250929050565b600060208284031215610b0157600080fd5b6000610b0f84828501610a60565b91505092915050565b600060208284031215610b2a57600080fd5b6000610b3884828501610a75565b91505092915050565b610b4a81610e07565b82525050565b610b5981610e25565b82525050565b610b70610b6b82610e25565b610ed5565b82525050565b6000610b8182610d84565b610b8b8185610d8f565b9350610b9b818560208601610e59565b610ba481610f78565b840191505092915050565b6000610bbc602b83610da0565b9150610bc782610f89565b604082019050919050565b6000610bdf601f83610da0565b9150610bea82610fd8565b602082019050919050565b610bfe81610e4f565b82525050565b610c15610c1082610e4f565b610edf565b82525050565b6000610c278285610b5f565b602082019150610c378284610c04565b6020820191508190509392505050565b6000602082019050610c5c6000830184610b41565b92915050565b6000606082019050610c776000830186610b41565b610c846020830185610bf5565b8181036040830152610c968184610b76565b9050949350505050565b6000602082019050610cb56000830184610b50565b92915050565b6000604082019050610cd06000830185610b50565b610cdd6020830184610bf5565b9392505050565b6000608082019050610cf96000830187610b50565b610d066020830186610bf5565b610d136040830185610b41565b610d206060830184610bf5565b95945050505050565b60006020820190508181036000830152610d4281610baf565b9050919050565b60006020820190508181036000830152610d6281610bd2565b9050919050565b6000602082019050610d7e6000830184610bf5565b92915050565b600081519050919050565b600082825260208201905092915050565b600082825260208201905092915050565b6000610dbc82610e4f565b9150610dc783610e4f565b9250827fffffffffffffffffffffffffffffffffffffffffffffffffffffffffffffffff03821115610dfc57610dfb610f1a565b5b828201905092915050565b6000610e1282610e2f565b9050919050565b60008115159050919050565b6000819050919050565b600073ffffffffffffffffffffffffffffffffffffffff82169050919050565b6000819050919050565b60005b83811015610e77578082015181840152602081019050610e5c565b83811115610e86576000848401525b50505050565b6000610e9782610e4f565b91507fffffffffffffffffffffffffffffffffffffffffffffffffffffffffffffffff821415610eca57610ec9610f1a565b5b600182019050919050565b6000819050919050565b6000819050919050565b6000610ef482610e4f565b9150610eff83610e4f565b925082610f0f57610f0e610f49565b5b828206905092915050565b7f4e487b7100000000000000000000000000000000000000000000000000000000600052601160045260246000fd5b7f4e487b7100000000000000000000000000000000000000000000000000000000600052601260045260246000fd5b6000601f19601f8301169050919050565b7f4e6f7420656e6f756768204c494e4b202d2066696c6c20636f6e74726163742060008201527f7769746820666175636574000000000000000000000000000000000000000000602082015250565b7f4f6e6c7920565246436f6f7264696e61746f722063616e2066756c66696c6c00600082015250565b61100a81610e19565b811461101557600080fd5b50565b61102181610e25565b811461102c57600080fd5b50565b61103881610e4f565b811461104357600080fd5b5056fea2646970667358221220da103e76280d0300c21cc24c5ed499c595231f30d99f5a14dca8a4d14f6fac7264736f6c63430008020033",
  "linkReferences": {},
  "deployedLinkReferences": {}
}